{
  "contractName": "AdditionGame",
  "abi": [
    {
      "constant": true,
      "inputs": [],
      "name": "owner",
      "outputs": [
        {
          "name": "",
          "type": "address"
        }
      ],
      "payable": false,
      "stateMutability": "view",
      "type": "function"
    },
    {
      "inputs": [],
      "payable": false,
      "stateMutability": "nonpayable",
      "type": "constructor"
    },
    {
      "constant": true,
      "inputs": [],
      "name": "getBalance",
      "outputs": [
        {
          "name": "",
          "type": "uint256"
        }
      ],
      "payable": false,
      "stateMutability": "view",
      "type": "function"
    },
    {
      "constant": false,
      "inputs": [],
      "name": "deposit",
      "outputs": [],
      "payable": true,
      "stateMutability": "payable",
      "type": "function"
    },
    {
      "constant": false,
      "inputs": [
        {
          "name": "_value",
          "type": "uint256"
        }
      ],
      "name": "transfer",
      "outputs": [
        {
          "name": "",
          "type": "bool"
        }
      ],
      "payable": false,
      "stateMutability": "nonpayable",
      "type": "function"
    }
  ],
  "bytecode": "0x608060405234801561001057600080fd5b50336000806101000a81548173ffffffffffffffffffffffffffffffffffffffff021916908373ffffffffffffffffffffffffffffffffffffffff160217905550610271806100606000396000f3fe60806040526004361061005c576000357c01000000000000000000000000000000000000000000000000000000009004806312065fe01461006157806312514bba1461008c5780638da5cb5b146100df578063d0e30db014610136575b600080fd5b34801561006d57600080fd5b50610076610140565b6040518082815260200191505060405180910390f35b34801561009857600080fd5b506100c5600480360360208110156100af57600080fd5b810190808035906020019092919050505061015f565b604051808215151515815260200191505060405180910390f35b3480156100eb57600080fd5b506100f46101c5565b604051808273ffffffffffffffffffffffffffffffffffffffff1673ffffffffffffffffffffffffffffffffffffffff16815260200191505060405180910390f35b61013e6101ea565b005b60003073ffffffffffffffffffffffffffffffffffffffff1631905090565b60008161016a610140565b101561017557600080fd5b3373ffffffffffffffffffffffffffffffffffffffff166108fc839081150290604051600060405180830381858888f193505050501580156101bb573d6000803e3d6000fd5b5060019050919050565b6000809054906101000a900473ffffffffffffffffffffffffffffffffffffffff1681565b6000809054906101000a900473ffffffffffffffffffffffffffffffffffffffff1673ffffffffffffffffffffffffffffffffffffffff163373ffffffffffffffffffffffffffffffffffffffff161461024357600080fd5b56fea165627a7a72305820088096d22b9b1a1ef7dafe3dfd52c87ce03d868e0efbee790ee761183c3db7b20029",
  "source": "pragma solidity >= 0.4.24;\n\ncontract AdditionGame {\n    address public owner;\n\n    constructor() public {\n        owner = msg.sender;\n    }\n    \n    function getBalance() public view returns (uint) {\n        return address(this).balance;\n    }\n\n    function deposit() public payable {  \n        require(msg.sender == owner);\n    }   \n  \n    function transfer(uint _value) public returns (bool) {\n        require(getBalance() >= _value);\n        msg.sender.transfer(_value);\n        return true;\n    }\n}\n",
  "sourcePath": "/Users/hs/dev/workspace/study/klaytn/addition-game-starter/contracts/AdditionGame.sol",
  "compiler": {
    "name": "solc",
    "version": "0.5.6+commit.b259423e.Emscripten.clang"
  },
  "schemaVersion": "2.0.2",
  "updatedAt": "2022-03-07T09:10:40.899Z"
}